:040000007EEF3FF060
:107EFC00086A000EF86E0001BDEF3FF0240EAC6E68
:107F0C00900EAB6E400EB86E190EAF6E12000FD005
:107F1C00D59AD596D580D592D594F294D58C000E61
:107F2C00D66ED58EF2A4FED70106D8A0020602BEEC
:107F3C0012000250EDE10104D8A01200E9D711D0D3
:107F4C000804D8A40ED08280010E026EF40E016ECD
:107F5C008DEC3FF08290010E026EF40E016E8DECF2
:107F6C003FF09EAAEDD7AECF03F003501200640E83
:107F7C00076E000E056E000E046E84EC3FF09490BC
:107F8C00949C948E0F0E926E0F0EC16E8290A5EC87
:107F9C003FF0066E1BD0000E03D0010E01D0020E76
:107FAC00076EF5D780500718D8A4F1D7829005D06A
:107FBC0080500718D8A4EBD78280000E05D08050D3
:107FCC000718D8A4E4D7010E086EE1D70650300A82
:107FDC00D8B4E8D7010AD8B4EBD7030AD8B4EFD792
:107FEC00530AD8B4D8D7030AD8B4D7D7010AD8B40F
:047FFC00D6D7CDD730
:020000040020DA
:08000000FFFFFFFFFFFFFFFF00
:020000040030CA
:0E00000000001F1EFF8385FF0FC00FE00F40A2
:00000001FF
