:04000000A0EF3FF03E
:107F4000076A000EF86E0001DFEF3FF0240EAC6E02
:107F5000900EAB6E400EB86E190EAF6E12000FD0C1
:107F6000D59AD596D580D592D594F294D58C000E1D
:107F7000D66ED58EF2A4FED70106D8A0020602BEA8
:107F800012000250EDE10104D8A01200E9D711D08F
:107F90000704D8A40ED08280010E026EF40E016E8A
:107FA000AFEC3FF08290010E026EF40E016EAFEC6A
:107FB0003FF09EAAEDD7AECF03F003501200000EA3
:107FC000056E000E046EA6EC3FF09490949C948E87
:107FD0008290C7EC3FF0066E08D0829001D082807C
:107FE000000E01D0010E076EF4D70650300AD8B447
:107FF000F4D7010AD8B4F3D7030AD8B4F3D7E9D732
:020000040020DA
:08000000FFFFFFFFFFFFFFFF00
:020000040030CA
:0E00000000001F1EFF8385FF0FC00FE00F40A2
:00000001FF
